:100000000C948B000C94B3000C94B3000C94B300CC
:100010000C94B3000C94B3000C94B3000C94B30094
:100020000C94B3000C94B3000C94B3000C94B30084
:100030000C94B3000C94B3000C94B3000C94B30074
:100040000C941F080C94B3000C948F080C9469084E
:100050000C94B3000C94B3000C94B3000C94B30054
:100060000C94B3000C94B30043414E20696E697444
:1000700069616C697A6174696F6E204F4B0043410E
:100080004E20696E697469616C697A6174696F6E1A
:10009000206661696C6564004572726F7220696EDA
:1000A0002043414E2C2072657374617274696E67CF
:1000B000207468652077686F6C65207468696E6766
:1000C0000000000008000201000003040700000017
:1000D000000000000000000000250028002B0000A8
:1000E000000000240027002A00040404040404047F
:1000F00004020202020202030303030303010204D7
:100100000810204080010204081020010204081099
:100110002000D80E840D11241FBECFEFD8E0DEBF23
:10012000CDBF13E0A0E0B1E0E4ECF2E202C0059044
:100130000D92AC39B107D9F725E0ACE9B3E001C0C5
:100140001D92AF35B207E1F710E0CAE8D0E004C075
:100150002197FE010E942910C938D107C9F70E94D2
:10016000880D0C9455110C940000CF93DF93EC0193
:10017000E881F9810084F185E02D0995FC018481F5
:10018000807C69F4E881F9810084F185E02DCE015D
:100190000995FC01848186FB882780F901C082E0F3
:1001A000DF91CF910895DC01ED91FC910084F18500
:1001B000E02D0995FC01848186FB882780F991E078
:1001C000892708950C94D300EF92FF920F931F9309
:1001D000CF93DF93EC017B01E881F9810084F18505
:1001E000E02D0995DC0111968C91833088F1D701BF
:1001F000ED91FC910084F185E02DC7010995FC018A
:10020000028110E0005C1F4FE881F9810084F185D4
:10021000E02DCE010995DC0112968C9190E0081733
:100220001907B1F4D701ED91FC910084F185E02D1F
:10023000C7010995FC011381E881F9810084F185EA
:10024000E02DCE01099521E0DC0113968C918113FC
:1002500020E0822FDF91CF911F910F91FF90EF90BF
:1002600008950C94E4000C94E4000F931F93CF9333
:10027000DF93EC01E881F9810684F785E02D00E049
:1002800010E020E537E040E060E00995E881F98181
:100290000684F785E02D00E010E020EC37E040E038
:1002A00061E0CE010995E881F9810684F785E02DAA
:1002B00000E010E020ED37E040E062E0CE0109957B
:1002C000E881F9810684F785E02D00E010E020EE5A
:1002D00037E040E063E0CE010995E881F9810684CA
:1002E000F785E02D00E010E020EF37E040E064E02B
:1002F000CE010995E881F9810484F585E02D00E0BF
:1003000010E020EF37E040E060E0CE010995E881A1
:10031000F9810484F585E02D00E010E020EF37E05E
:1003200040E061E0CE010995E881F9810484F5851A
:10033000E02D00E010E020EF37E040E062E0CE0189
:100340000995E881F9810484F585E02D00E010E04D
:1003500020EF37E040E063E0CE010995E881F981C4
:100360000484F585E02D00E010E020EF37E040E068
:1003700064E0CE010995DF91CF911F910F9108950F
:10038000DC01ED91FC910084F185E02D0995FC01E3
:1003900083810895EF92FF920F931F93CF93DF9382
:1003A000EC017B01E881F9810084F185E02D09955C
:1003B000DC018C91833088F1D701ED91FC910084B0
:1003C000F185E02DC7010995FC01018110E0005C79
:1003D0001F4FE881F9810084F185E02DCE01099558
:1003E000DC0111968C9190E008171907B1F4D70140
:1003F000ED91FC910084F185E02DC7010995FC0188
:100400001281E881F9810084F185E02DCE01099502
:1004100021E0DC0112968C91811320E0822FDF9184
:10042000CF911F910F91FF90EF9008950796089537
:10043000FC0163817481858196810895FC0182812C
:100440000895089507960895FC016381748185815C
:1004500096810895FC01828108950C94C7100C9434
:10046000C7100C94C7100C94C7100C94C7100C94B0
:10047000C7100C94C7100C94C7100C94C7100C94A0
:10048000C710CF93DF93EC018A819B810E94C71034
:100490001B821A8281E0DF91CF9108954F925F9283
:1004A0006F927F928F929F92AF92BF92CF92DF9284
:1004B000EF92FF920F931F93CF93DF93EC010C8188
:1004C0001D81CA80DB807C0188E3E80EF11CB60147
:1004D000C7010E940B0D882309F4EFC0C6010E94DA
:1004E000420B882309F4E9C0B601C8010E94B20B8F
:1004F000882309F4E2C03E0198E4690E711CD3011F
:100500008D919C91892B09F4D8C06E01BAE4CB0E71
:10051000D11CF60180819181892B09F4CEC03296DD
:1005200080809180A280B380D801ED91FC910680FB
:10053000F781E02DC801099586169706A806B90629
:1005400009F0BBC0D601ED91FC91B701C801099536
:10055000882309F4B2C0D301ED91FC91C80109953B
:100560006E01B7E4CB0ED11CF60180834C815D8116
:100570006A817B81CE01805B9F4F0E94380D88236A
:1005800009F49BC04C815D816A817B81CE018859D1
:100590009F4F0E94380D882309F48FC00C811D8164
:1005A000EA80FB805E01B1E1AB0EB11CB701C50171
:1005B0000E940B0D882309F480C0C7010E94420BE2
:1005C000882309F47AC0B701C8010E94B20B8823BE
:1005D00009F473C089A19AA1892B09F46EC08BA17B
:1005E0009CA1892B09F469C04DA05EA06FA078A4DE
:1005F000D801ED91FC910680F781E02DC8010995A5
:10060000461657066806790609F057C0EBA1FCA10B
:10061000B501C8010995882309F44FC0E9A1FAA1E1
:10062000C801099588A3FE01E15AFF4F8F3060F0A1
:1006300081E0888B8081882399F0FE01E958FF4F83
:100640008081811120C00CC081E08F878081811161
:100650001CC0FE01E958FF4F8081811116C02CC0DB
:100660008F85882351F16A817B8180E88DABCE0133
:1006700089960E940B0D882301F164E670E080E00A
:1006800090E00E94FC0A1F8618C088898823A9F080
:10069000F6018081811111C06A817B8180E48DAB7C
:1006A000CE0189960E940B0D882339F064E670E034
:1006B00080E090E00E94FC0A188ADF91CF911F91A0
:1006C0000F91FF90EF90DF90CF90BF90AF909F90F1
:1006D0008F907F906F905F904F900895FC01828182
:1006E0009381009719F06DE20C94830980E00895DE
:1006F000FC0182819381009749F06DE20E94830999
:10070000982F987F81E019F480E0089581E00895A2
:100710002F923F924F925F926F927F928F929F9211
:10072000AF92BF92CF92DF92EF92FF920F931F93FF
:10073000CF93DF9300D000D0CDB7DEB7FC01E280CD
:10074000F380E114F10409F4BEC0F7014183528340
:1007500063837483DB01CA013EE1B695A795979543
:1007600087953A95D1F781708687442777FD439521
:1007700055276627772740832583D8013696C701FA
:100780000E965E2ECF2E2D912193E817F907D9F7FB
:10079000A12CB12C20900601309007014090080157
:1007A0004E01F4E08F0E911C29823A824B82CE01D9
:1007B00001963C01D82E072DF30111913F01612FC5
:1007C000C7010E948309982F987083FD02C01F5FA4
:1007D00005C06814790481F710E092E0FFEFAF1ACA
:1007E000BF0A923029F442E3A416B104E9F66BC0C3
:1007F00082E3A816B10409F466C0F7012581452DEE
:100800005C2D65E0610FC7010E94FB08F70186853A
:10081000813019F4858180648583F701458164E026
:10082000610FC7010E946709F70181819281A3814D
:10083000B48120812130B1F48C839B83CD01AA2720
:10084000BB27382F3C71282F2370F8E03F9F200DE5
:10085000112428602A8335E0969587953A95E1F72B
:1008600089830DC09C0193E0369527959A95E1F711
:1008700029838295880F807E8A831C821B8224E0D4
:100880004D2D502F612FC7010E94FB08115028E009
:1008900048E0612FC7010E94D908C12CD12C4FEF2D
:1008A000C41AD40A612FC7010E94830983FF05C0BF
:1008B00082E3C816D10499F706C092E3C916D104A1
:1008C00011F081E001C080E00F900F900F900F9029
:1008D000DF91CF911F910F91FF90EF90DF90CF901C
:1008E000BF90AF909F908F907F906F905F904F9050
:1008F0003F902F900895CF92DF92EF92FF920F9347
:100900001F93CF93DF93FC01C281D3812097C1F164
:1009100089017A016B01CE010E94C10880FF07C0E6
:1009200061E6CE010E949F0920E041E008C081FFFE
:1009300027C061E7CE010E949F0920E042E06CE2FF
:10094000CE010E94D90889819A81AB81BC81F601D0
:1009500080839183A283B3838D81F7018083888113
:1009600080930100DE011696F8018D8190E09F01D1
:10097000201B310B281739072CF48D918193F5CF6B
:1009800080E001C081E0DF91CF911F910F91FF9036
:10099000EF90DF90CF900895FC01828193810E94B7
:1009A000C108837011F494E001C093E081E09330BA
:1009B00009F080E008958F929F92AF92BF92FF92CC
:1009C0000F931F93CF93DF93FC01C281D3812097B4
:1009D00009F44EC048015901F42E162F85EF91E01D
:1009E0000E946E0A60E8CE010E941F0A882319F057
:1009F0008FE092E034C01230C9F048F4112389F03E
:100A0000113029F5950184014F2D64E01DC014308B
:100A1000B9F088F01530D9F4950184014F2D68E1C3
:100A200013C0950184014F2D60E00EC09501840133
:100A30004F2D68E009C0950184014F2D60E104C08D
:100A4000950184014F2D64E1CE010E942B09698933
:100A5000CE010E941F0A882329F085E392E00E94BC
:100A60006E0A06C084E792E00E946E0A81E001C02F
:100A700080E0DF91CF911F910F91FF90BF90AF90D9
:100A80009F908F9008958F929F92AF92BF92FF9206
:100A90000F931F93CF93DF93FC01C281D3812097E3
:100AA00091F148015901F42E162F82E992E00E943B
:100AB0006E0A60E8CE010E941F0A882319F08AEAB4
:100AC00092E018C0111105C0950184014F2D60E21C
:100AD00006C0113039F4950184014F2D64E2CE0136
:100AE0000E942B096989CE010E941F0A882329F0E0
:100AF00083ED92E00E946E0A06C080E193E00E94BE
:100B00006E0A81E001C080E0DF91CF911F910F91CB
:100B1000FF90BF90AF909F908F9008958EBD000082
:100B20000DB407FEFDCF8EB50895CF92DF92EF9200
:100B3000FF920F931F93CF93DF937C016B01DC0136
:100B400012968D919C911397892B39F0ED91FC9120
:100B50000680F781E02DC701099582E190E00E94AF
:100B60002F10EC018AE0888B61E00E94AF0A88892F
:100B70000E94700AF701D383C2831FB7F894809153
:100B80009C03811124C0E3EFF0E08491E7E0F1E001
:100B90009491E82FF0E0EE0FFF1FE152FF4FA59177
:100BA000B491EC91E92321F461E08AE00E94AF0A5C
:100BB0008AE00E94700A8CB580618CBD8CB580641F
:100BC0008CBD8DE00E94700A8BE00E94700A8091BB
:100BD0009C038F5F80939C031FBF60E088890E9405
:100BE000AF0A80EC0E948E0561E088890E94AF0AFE
:100BF00083E290E00197F1F780E4898B60E8CE0111
:100C00000E941F0A882319F08AEA92E08FC08BE2C3
:100C100093E00E946E0A40E06AE2CE010E946709FA
:100C200040EF69E2CE010E94670946E868E2CE0122
:100C30000E94670985E593E00E946E0A00E010E0DB
:100C4000980141E060E2CE010E942B0900E010E033
:100C5000980141E064E2CE010E942B0900E010E01F
:100C6000980141E060E0CE010E942B0900E010E015
:100C7000980140E064E0CE010E942B0900E010E002
:100C8000980141E068E0CE010E942B0900E010E0ED
:100C9000980140E060E1CE010E942B0900E010E0E5
:100CA000980141E064E1CE010E942B0900E010E0D0
:100CB000980140E068E1CE010E942B0910E340E07A
:100CC000612FCE010E94670960E1610F40E0CE0113
:100CD0000E94670960E2610F40E0CE010E9467094F
:100CE0001F5F1E3361F740E060E6CE010E94670996
:100CF00040E060E7CE010E94670943E06BE2CE016D
:100D00000E94670924E044E660E6CE010E94D9080B
:100D100020E040E660E7CE010E94D9086989CE0153
:100D20000E941F0A882371F084E793E00E946E0AF4
:100D3000D701ED91FC910680F781E02DC70109955F
:100D400080E011C0C114D10419F0C701F601099562
:100D5000D70112968D919C911397FC01118A60E046
:100D60000E941F0A81E0DF91CF911F910F91FF90A8
:100D7000EF90DF90CF900895089508950895089515
:100D8000089508950895089508950895FC018281B5
:100D900093810C94C710CF93DF93EC010E94C60699
:100DA000CE01DF91CF910C94C710DC01ED91FC9145
:100DB0000288F389E02D0994CF92DF92EF92FF929F
:100DC0000F931F93CF93DF936C017A018B01C0E0E7
:100DD000D0E0CE15DF0581F0D8016D918D01D601EF
:100DE000ED91FC910190F081E02DC6010995892BD0
:100DF00011F02196EECF7E01C701DF91CF911F91B7
:100E00000F91FF90EF90DF90CF900895089580E0CC
:100E100090E00895FC01538D448D252F30E0842F00
:100E200090E0821B930B541710F0CF960895019712
:100E30000895FC01918D828D981761F0828DDF01FC
:100E4000A80FB11D5D968C91928D9F5F9F73928FBD
:100E500090E008958FEF9FEF0895FC01918D828DB2
:100E6000981731F0828DE80FF11D858D90E008957F
:100E70008FEF9FEF0895FC01918D228D892F90E0D7
:100E8000805C9F4F821B91098F739927089586EA92
:100E900093E00E943B0721E0892B09F420E0822F98
:100EA0000895FC01848DDF01A80FB11DA35ABF4F27
:100EB0002C91848D90E001968F739927848FA68959
:100EC000B7892C93A089B1898C91837080648C93AD
:100ED000938D848D981306C00288F389E02D80815C
:100EE0008F7D80830895EF92FF920F931F93CF938E
:100EF000DF93EC0181E0888F9B8D8C8D981305C06A
:100F0000E889F989808185FD26C0F62E0B8D10E0D9
:100F10000F5F1F4F0F731127E02E8C8DE8120CC04E
:100F20000FB607FCFACFE889F989808185FFF5CFF4
:100F3000CE010E945107F1CF8B8DFE01E80FF11D0C
:100F4000E35AFF4FF0829FB7F8940B8FEA89FB8931
:100F5000808180620AC09FB7F894EE89FF89608320
:100F6000E889F98980818370806480839FBF81E0F4
:100F700090E0DF91CF911F910F91FF90EF90089536
:100F8000CF93DF93EC01888D8823C9F0EA89FB8930
:100F9000808185FD05C0A889B9898C9186FD0FC027
:100FA0000FB607FCF5CF808185FFF2CFA889B989FC
:100FB0008C9185FFEDCFCE010E945107E7CFDF91E5
:100FC000CF91089580E090E0892B29F00E94470797
:100FD00081110C94000008950E945011DF92EF924D
:100FE000FF920F931F93CF93DF938C01C62FD42EC4
:100FF000E52EF22E60E0FC0180890E94AF0A83E0BA
:101000000E948E058C2F0E948E05CD2DDE2DCE01E7
:101010008F0D911D7C01CE15DF0529F080E00E9427
:101020008E058993F8CF61E0F8018089DF91CF9137
:101030001F910F91FF90EF90DF900C94AF0A1F92D9
:101040000F920FB60F9211242F933F938F939F937C
:10105000AF93BF9380919E0390919F03A091A003B3
:10106000B091A10330919D0323E0230F2D3720F48D
:101070000196A11DB11D05C026E8230F0296A11DF2
:10108000B11D20939D0380939E0390939F03A09393
:10109000A003B093A1038091A2039091A303A09118
:1010A000A403B091A5030196A11DB11D8093A203D5
:1010B0009093A303A093A403B093A503BF91AF9112
:1010C0009F918F913F912F910F900FBE0F901F9086
:1010D00018951F920F920FB60F9211242F933F93E2
:1010E0004F935F936F937F938F939F93AF93BF9330
:1010F000EF93FF9386EA93E00E945107FF91EF91EF
:10110000BF91AF919F918F917F916F915F914F911F
:101110003F912F910F900FBE0F901F9018951F9227
:101120000F920FB60F9211242F938F939F93EF93EB
:10113000FF93E091B603F091B7038081E091BC0387
:10114000F091BD0382FD12C090818091BF038F5F3B
:101150008F732091C003821751F0E091BF03F0E03C
:10116000EA55FC4F958F8093BF0301C08081FF91AA
:10117000EF919F918F912F910F900FBE0F901F9025
:1011800018951F93CF93DF93EC0160E088890E944C
:10119000AF0A80EA0E948E0580E00E948E05182F1B
:1011A00061E088890E94AF0A812FDF91CF911F9162
:1011B0000895FF920F931F93CF93DF93EC01F62EC8
:1011C000042F122F60E088890E94AF0A85E00E94F8
:1011D0008E058F2D0E948E05802F0E948E05812FF7
:1011E0000E948E0561E08889DF91CF911F910F9158
:1011F000FF900C94AF0ADF92EF92FF920F931F9330
:10120000CF93DF938C01C62FD42EE52EF22E60E013
:10121000FC0180890E94AF0A82E00E948E058C2F1B
:101220000E948E05CD2DDE2DCE018F0D911D7C01EE
:10123000CE15DF0521F089910E948E05F9CF61E07E
:10124000F8018089DF91CF911F910F91FF90EF906E
:10125000DF900C94AF0A0F931F93CF93DF9300D0CE
:1012600000D0CDB7DEB7E62FF42FA9016627772788
:101270000C831B83F13081F4342F3C71242F2370B5
:10128000F8E03F9F200D112428602A8335E0569511
:1012900047953A95E1F70AC0242F2295220F207E28
:1012A0002A8323E0569547952A95E1F7498324E060
:1012B000AE014F5F5F4F6E2F0E94FB080F900F90A3
:1012C0000F900F90DF91CF911F910F9108950F9381
:1012D0001F93CF93DF93EC01062F142F60E08889D2
:1012E0000E94AF0A82E00E948E05802F0E948E0528
:1012F000812F0E948E0561E08889DF91CF911F9137
:101300000F910C94AF0A1F93CF93DF93EC01162F2C
:1013100060E088890E94AF0A83E00E948E05812FD9
:101320000E948E0580E00E948E05182F61E088895A
:101330000E94AF0A812FDF91CF911F910895EF9204
:10134000FF920F931F93CF93DF9300D000D0CDB7C0
:10135000DEB78C01F62EFC011082118212821382FC
:10136000148224E0AE014F5F5F4F0E94EE072A8196
:101370003981822F90E065E0959587956A95E1F730
:10138000F8E03F9F800D911D1124092E000CAA0B3F
:10139000BB0BF80181839283A383B48323FF24C012
:1013A00032E0880F991FAA1FBB1F3A95D1F723700F
:1013B000820F911DA11DB11DBA2FA92F982F88272B
:1013C0002B81820F911DA11DB11DBA2FA92F982F1E
:1013D00088272C81820F911DA11DB11D81839283CD
:1013E000A383B48381E080836FEF6F0DC8010E94F7
:1013F0008309E82E64E06F0DC8010E948309F8019B
:101400008583E3FE03C091E0968702C0F80116864B
:10141000282F2F70F8012583A8014A5F5F4F65E0F0
:101420006F0DC8010E94EE070F900F900F900F9064
:10143000DF91CF911F910F91FF90EF9008950F933F
:101440001F93CF938C01C62F262F40EE6FE00E9492
:10145000D9086FE0C8010E948309982F907E81E02F
:101460009C1301C080E0CF911F910F9108953FB769
:10147000F8948091A2039091A303A091A403B0914A
:10148000A50326B5A89B05C02F3F19F00196A11D05
:10149000B11D3FBFBA2FA92F982F8827820F911D0A
:1014A000A11DB11DBC01CD0142E0660F771F881F51
:1014B000991F4A95D1F70895009769F0FC010190B2
:1014C0000020E9F73197AF01481B590BBC0186EAB0
:1014D00093E00C94DC0680E090E008950C945C0AA4
:1014E00090E0FC01E350FF4F2491FC01E751FF4FD6
:1014F0008491882399F090E0880F991FFC01E152B4
:10150000FF4FA591B491FC01EB52FF4F859194914F
:101510008FB7F894EC91E22BEC938FBF08950F9363
:101520001F93CF93DF938C01C0E0D0E0F801EC0F64
:10153000FD1F6491662341F086EA93E00E947307E1
:10154000892B11F02196F2CF87EA92E00E945C0A83
:101550008C0F9D1FDF91CF911F910F91089590E007
:10156000FC01EF53FF4F2491FC01E350FF4F3491F6
:10157000FC01E751FF4FE491EE2309F43CC0222324
:1015800039F1233091F038F42130A9F0223001F5FF
:1015900084B58F7D12C0273091F02830A1F024301F
:1015A000B9F4809180008F7D03C0809180008F7797
:1015B000809380000DC084B58F7784BD09C0809171
:1015C000B0008F7703C08091B0008F7D8093B00012
:1015D000F0E0EE0FFF1FEB52FF4FA591B4919FB7C4
:1015E000F894611104C08C913095382302C0EC91BD
:1015F0003E2B3C939FBF08958F929F92AF92BF92D4
:10160000CF92DF92EF92FF926B017C010E94370A2A
:101610004B015C01C114D104E104F104F1F00E941A
:10162000370ADC01CB0188199909AA09BB09883E50
:101630009340A105B10570F321E0C21AD108E10879
:10164000F10888EE880E83E0981EA11CB11CC1141D
:10165000D104E104F10419F7DDCFFF90EF90DF90A2
:10166000CF90BF90AF909F908F9008952FB7F89430
:1016700060919E0370919F038091A0039091A103BC
:101680002FBF0895CF92DF92EF92FF921F93CF93D7
:10169000DF93EC010E94360B6B017C01E881F9813C
:1016A0000088F189E02DCE010995182F81110DC018
:1016B0000E94360BDC01CB018C199D09AE09BF09D4
:1016C000853F9140A105B10548F3812FDF91CF916E
:1016D0001F91FF90EF90DF90CF9008954F925F920F
:1016E0006F927F929F92AF92BF92CF92DF92EF92D2
:1016F000FF920F931F93CF93DF93EC012A013B01DD
:10170000922E58010E94360B6B017C01E881F98111
:101710000488F589E02D8501292DB301A201CE01B0
:101720000995182F81110DC00E94360BDC01CB01E9
:101730008C199D09AE09BF09853F9140A105B105EE
:1017400028F3812FDF91CF911F910F91FF90EF90A0
:10175000DF90CF90BF90AF909F907F906F905F9001
:101760004F9008952F923F924F925F926F927F9287
:101770008F929F92AF92BF92CF92DF92EF92FF92A1
:101780000F931F93CF93DF93CDB7DEB764970FB658
:10179000F894DEBF0FBECDBF9C8B8B8B4B01CB0172
:1017A0000E94420B882309F41BC1EB88FC888CE85B
:1017B000E80EF11CCB88DC8897E8C90ED11CAB88F9
:1017C000BC88E8E8AE0EB11C9701A601B501C401C2
:1017D0000E94D506382E882309F402C1F7018081C2
:1017E00082958F7089F4F6012081422F50E0F70135
:1017F00080E090E084179507D4F43191DF01A6587A
:10180000B1093C930196F6CF813001F1F6012081B8
:10181000422F50E0F70180E090E0841795073CF4F8
:101820003191DF01A658B1093C930196F6CFEB89BF
:10183000FC892283F50180819181A281B381EB89AA
:10184000FC8983839483A583B683CBC04B885C8853
:10185000FDE84F0E511CF2018081EB89FC898283E7
:10186000F50180819181A281B381EB89FC89838319
:101870009483A583B683F601208130E0F20181E0F4
:1018800090E082179307E4F184E0682E712C8B8935
:101890009C8988579F4F9C838B83EB89FC89E957F0
:1018A000FF4FFA83E9838B899C8983579F4F9E83DF
:1018B0008D8322242394EB89FC89E257FF4FF8871C
:1018C000EF838B899C8981579F4F9A878987EB8902
:1018D000FC89E057FF4FFC87EB878B899C898F56EB
:1018E0009F4F9E878D87EB89FC89EE56FF4FF88BC3
:1018F000EF878B899C898D569F4F9A8B898B0AC065
:101900004191DF01A758B1094C930196BACFF7E096
:101910006F0E711CEB89FC89828190E06816790654
:1019200008F05FC043815481658176814850510938
:1019300061097109EB81FC81408351836283738368
:1019400088E0E981FA81808380E3F7018083ED817B
:10195000FE812082EF81F8851082E985FA85108268
:10196000EB85FC851082ED85FE851082EF85F88978
:101970001082E989FA891082870128E0C4010E9457
:101980006E0B882369F1C4010E94420B882341F148
:101990009701A601B501C4010E94D506F701808117
:1019A00082958F708230A9F4E981FA81808190E07C
:1019B0002B893C89260D371DF901D2013196AF01E3
:1019C000421B530B481759070CF0A1CF4D9146838A
:1019D000F5CFEB89FC89128213821482158216825C
:1019E000312C832D64960FB6F894DEBF0FBECDBFA9
:1019F000DF91CF911F910F91FF90EF90DF90CF90EB
:101A0000BF90AF909F908F907F906F905F904F901E
:101A10003F902F900895DF92EF92FF920F931F93C4
:101A2000CF93DF93EC017B01E881F9810084F1859C
:101A3000E02D09958C01E881F9810480F581E02D84
:101A4000CE010995D82EE881F9810680F781E02D35
:101A5000CE010995AB01BC012D2DC7010E946E0B73
:101A6000DF91CF911F910F91FF90EF90DF9008953C
:101A7000CF92DF92EF92FF920F931F93CF93DF935A
:101A8000EC017B018A010E940B0D882361F1C701E3
:101A90000E94420B882339F1B701C8010E94B20BA2
:101AA000882309F188899989892BE9F08A899B899A
:101AB000892BC9F0CC88DD88EE88FF88D801ED91AC
:101AC000FC910680F781E02DC8010995C616D7065E
:101AD000E806F90641F4EA89FB89BE01C8010995C7
:101AE000F82E811102C0F12C05C0E889F989C801DE
:101AF00009958F878F2DDF91CF911F910F91FF90C7
:101B0000EF90DF90CF90089587E595E00C94C6069E
:101B1000CF93DF93CDB7DEB7A6970FB6F894DEBFAD
:101B20000FBECDBF789484B5826084BD84B58160DA
:101B300084BD85B5826085BD85B5816085BD809198
:101B40006E00816080936E00109281008091810010
:101B50008260809381008091810081608093810008
:101B6000809180008160809380008091B1008460CA
:101B70008093B1008091B00081608093B00080912B
:101B80007A00846080937A0080917A0082608093EA
:101B90007A0080917A00816080937A0080917A0047
:101BA000806880937A001092C10068EB7BE080E04F
:101BB00090E00E94FC0AE091B603F091B70382E046
:101BC0008083E091B203F091B3031082E091B403FB
:101BD000F091B50380E180831092BE03E091BA03D7
:101BE000F091BB0386E08083E091B803F091B903E4
:101BF000808180618083E091B803F091B903808196
:101C000088608083E091B803F091B9038081806897
:101C10008083E091B803F091B90380818F7D808348
:101C200008E0CE0101967C01DD24D3941AA21BA208
:101C30001CA21DA21EA2F701802F11928A95E9F71E
:101C400016E165E371E087E595E00E949505811155
:101C500009C01150F9F064E670E080E090E00E9465
:101C6000FC0AEFCF87E595E00E94CC04882361F061
:101C70009701AE014A5D5F4FBE016E5D7F4F87E504
:101C800095E00E94D506EECF87E595E00E947803A7
:101C90008D110BC08EE790E00E948F0A64E670E021
:101CA00080E090E00E94FC0AC1CF88E690E00E94AC
:101CB0008F0A18E109E20FB6F894A8951093600016
:101CC0000FBE009360000E94360BAB01BC018091F7
:101CD0004904882339F180914E0490914F04A091DA
:101CE0005004B09151046A017B01C81AD90AEA0A6A
:101CF000FB0A80914A0490914B04A0914C04B0914E
:101D00004D04C816D906EA06FB0660F040934E045F
:101D100050934F04609350047093510483E494E013
:101D20000E944E0287E595E00E947803811104C06D
:101D3000A8950E94E207BFCFA89588E990E00E948D
:101D40008F0A87E595E00E946E03482F880F550B98
:101D5000660B770B19A2CE0181968A019B010F7049
:101D600011272227332724E07695679557954795C5
:101D70002A95D1F701970A3014F4005D01C0095C7F
:101D8000FC010083411551056105710531F70E9481
:101D90005C0A87EA92E00E945C0A98E088E10FB64C
:101DA000F894A895809360000FBE90936000FFCFD9
:101DB000CF92DF92EF92FF92CF93DF93E6EAF3E0C8
:101DC0001382128288EE93E0A0E0B0E084839583D2
:101DD000A683B7838DE091E09183808385EC90E0CA
:101DE0009587848784EC90E09787868780EC90E0E5
:101DF000918B808B81EC90E0938B828B82EC90E0D6
:101E0000958B848B86EC90E0978B868B118E128E4F
:101E1000138E148EC7E5D5E085EC91E09983888315
:101E20001B821A82A3ECB4E089EA91E011969C939C
:101E30008E9312961C92129713961D921D921D92CC
:101E40001C921697E3E4F4E0D383C283B583A483A2
:101E500013861486158616868EEB90E0A0E0B0E01F
:101E600087839087A187B28721E026838DE991E05F
:101E7000918380838FED97E0A0E0B0E0848B958B19
:101E8000A68BB78B88E0838B92E0908F218F2DE01B
:101E9000228F138E148E158E168E178E48EE57E0F5
:101EA00060E070E045A356A367A370A710A220ECE2
:101EB00031E032A321A32AEC31E034A323A323E7AA
:101EC00031E0328B218B40E557E060E070E044A7C1
:101ED00055A766A777A783A720E420AB35E031ABF1
:101EE00030E332AB31E133AB14AA15AA16AA17AA14
:101EF000A5E6B1E0B2A7A1A743AF54AF65AF76AFF7
:101F000082AF27AF9093830431E230938404A5EA33
:101F1000A09385041092860410928704109288047E
:101F200010928904A8E5CA2EA7E0DA2EE12CF12C44
:101F3000C0928F04D0929004E0929104F0929204A7
:101F400010928A04A5EBB0E0B0938C04A0938B04AC
:101F5000A1E3B1E0B0938E04A0938D04A9E4B1E0B5
:101F6000B1AFA0AF40939604509397046093980448
:101F7000709399048093950420939A0490939B0402
:101F800030939C04A2EAA0939D0410929E041092A8
:101F90009F041092A0041092A104C092A704D092B2
:101FA000A804E092A904F092AA041092A204A3ED5E
:101FB000B0E0B093A404A093A304A4EEB0E0B09367
:101FC000A604A093A504ADE2B1E0B0939404A0935D
:101FD00093044093AE045093AF046093B0047093A5
:101FE000B1048093AD042093B2049093B304309372
:101FF000B40483EA8093B5041092B6041092B70437
:102000001092B8041092B904C092BF04D092C004D8
:10201000E092C104F092C2041092BA0482EE90E001
:102020009093BC048093BB0483E391E09093BE043F
:102030008093BD048FE191E09093AC048093AB0456
:102040001786108ADF91CF91FF90EF90DF90CF90AD
:102050000895EE0FFF1F0590F491E02D09940F9362
:102060001F93CF93DF938230910510F482E090E0CC
:10207000E0915D05F0915E0520E030E0A0E0B0E089
:10208000309719F140815181028113814817590716
:10209000C8F08417950769F4109731F012960C93E5
:1020A000129713961C9327C000935D0510935E054D
:1020B00022C02115310519F04217530718F49A016F
:1020C000BD01EF01DF01F801DBCF21153105F9F08A
:1020D000281B390B2430310580F48A819B816115DE
:1020E000710521F0FB019383828304C090935E0508
:1020F00080935D05FE01329644C0FE01E20FF31F9E
:102100008193919322503109398328833AC02091D9
:102110005B0530915C05232B41F420910201309145
:10212000030130935C0520935B0520910001309101
:1021300001012115310541F42DB73EB7409104014D
:1021400050910501241B350BE0915B05F0915C0576
:10215000E217F307A0F42E1B3F0B2817390778F07E
:10216000AC014E5F5F4F2417350748F04E0F5F1FDD
:1021700050935C0540935B058193919302C0E0E02E
:10218000F0E0CF01DF91CF911F910F910895CF9390
:10219000DF93009709F481C0FC0132971382128209
:1021A000A0915D05B0915E05109781F42081318189
:1021B000820F931F20915B0530915C05281739072A
:1021C00051F5F0935C05E0935B0567C0ED0120E0FD
:1021D00030E0CE17DF0740F44A815B819E01411554
:1021E0005105F1F0EA01F5CFD383C28340815181DB
:1021F000840F951FC817D90759F488819981840FD6
:10220000951F0296918380838A819B819383828329
:102210002115310529F4F0935E05E0935D053DC07D
:10222000E901FB83EA8349915991C40FD51FEC174B
:10223000FD0761F480819181840F951F0296E90169
:1022400099838883828193819B838A83E0E0F0E095
:1022500012968D919C911397009719F0FD01DC0166
:10226000F7CF8D919C9111979D012E5F3F4F820F6B
:10227000931F20915B0530915C052817390769F49D
:10228000309729F410925E0510925D0502C013820A
:102290001282B0935C05A0935B05DF91CF91089506
:1022A00081E090E0F8940C94551110E0CAE8D0E079
:1022B00004C0FE010E9429102196CB38D107C9F72E
:0422C000F894FFCFC0
:1022C40000005F058000304050000000007307DC10
:1022D400060A07C0073B0719072D0700000000C0C6
:1022E400062D021E021802160200000000BF063569
:1022F400021E021802160200000000C3063B021E62
:10230400021802160200000000C10637021E02185D
:1023140002160200000000C20639021E021802164C
:102324000200000000BE0633021E0218021602005C
:10233400000000BD0631021E021802160200000051
:1023440000C4063D021E021802160200000000C569
:10235400063F021E0218021602000000002102219C
:102364000221024E0200000000BC062F022A0224B1
:102374000222020000000000000000EC07EC07EC61
:102384000700000000C606CB069505410278036EDF
:10239400034305DB04CC047B048803000000000035
:1023A400000000EC07EC07EC07EC07EC07EC07EC8B
:1023B40007EC07EC075374617274696E6720746FDD
:1023C400205365742046696C746572210D0A0045BA
:1023D4006E74657220436F6E6669677572617469A5
:1023E4006F6E204D6F6465204661696C7572652E51
:1023F4002E2E0D0A00456E746572696E6720507248
:102404006576696F7573204D6F6465204661696CEC
:102414007572652E2E2E0D0A53657474696E6720CD
:1024240046696C746572204661696C7572652E2EFE
:102434002E0D0A0053657474696E672046696C74C6
:102444006572205375636365737366756C6C210DD7
:102454000A005374617274696E6720746F20536547
:1024640074204D61736B210D0A00456E74657269A9
:102474006E6720436F6E66696775726174696F6E0B
:10248400204D6F6465204661696C7572652E2E2E31
:102494000D0A00456E746572696E67205072657628
:1024A400696F7573204D6F6465204661696C757240
:1024B400652E2E2E0D0A53657474696E67204D6166
:1024C400736B204661696C7572652E2E2E0D0A00A1
:1024D40053657474696E67204D61736B2053756323
:1024E4006365737366756C210D0A00456E746572BD
:1024F400696E6720436F6E66696775726174696F90
:102504006E204D6F646520537563636573736675E0
:102514006C210D0A0053657474696E6720426175FD
:102524006472617465205375636365737366756C57
:10253400210D0A0052657475726E696E6720746F9E
:102544002050726576696F7573204D6F64652046FF
:0C25540061696C7572652E2E2E0D0A0058
:00000001FF
